:020000040800F2
:1000000000280020C5110008551100085B110008E8
:1000100061110008671100086D1100080000000060
:100020000000000000000000000000007311000844
:100030007F110008000000008B11000897110008D4
:100040000D1200080D1200080D1200080D12000814
:100050000D1200080D1200080D1200080D12000804
:100060000D1200080D1200080D1200080D120008F4
:100070000D1200080D1200080D1200080D120008E4
:100080000D1200080D1200080D1200080D120008D4
:100090000D1200080D1200080D1200080D120008C4
:1000A0000D1200080D1200080D1200080D120008B4
:1000B000A51100080D120008000000000D12000834
:1000C0000D12000800000000000000000D120008E2
:1000D000000000000D1200080D12000800000000D2
:1000E0000D1200080D1200080D120008000000009B
:1000F0000000000000000000000000000000000000
:0C01000000000000000000005FF808F1A3
:10010C0010B5054C237833B9044B13B10448AFF345
:10011C0000800123237010BD380000200000000077
:10012C003428000808B5034B1BB103490348AFF34F
:10013C00008008BD000000003C00002034280008AE
:10014C0080B500AF624B1B68624A1360624B1B6840
:10015C005F4A13604FF40051604801F03DFB0346C9
:10016C001A465D4B1A605B4B1A68594B1B689A42D6
:10017C001CD1574B1A68584B1B689A4216D1564BD8
:10018C001B68002B1ED1564B01221A60554B1B6865
:10019C00013B544A1360534B1B68002B12D1514B3B
:1001AC0019221A604C4B01221A600BE04D4B1B6854
:1001BC00192B08D04B4B1B68642B04D0494B642281
:1001CC001A6000E000BF424B5B68424A5360424BEE
:1001DC005B683F4A53604FF48041404801F0FCFAA1
:1001EC0003461A463C4B5A603A4B5A68384B5B688C
:1001FC009A421CD1364B5A68374B5B689A4216D1DF
:10020C00354B5B68002B1ED1374B01221A60374BE4
:10021C001B68013B354A1360344B1B68002B12D111
:10022C00324B19221A602C4B01225A600BE02F4BD7
:10023C001B68192B08D02D4B1B68642B04D02B4B3F
:10024C0064221A6000E000BF214B9B68214A936036
:10025C00214B9B681E4A93604FF400411F4801F0EC
:10026C00BBFA03461A461C4B9A601A4B9A68184BF9
:10027C009B689A421CD1164B9A68174B9B689A4202
:10028C0016D1154B9B68002B1ED1194B01221A60FD
:10029C00184B1B68013B174A1360164B1B68002B4D
:1002AC0012D1144B19221A600B4B01229A600BE0ED
:1002BC00104B1B68192B08D00E4B1B68642B04D0F9
:1002CC000C4B64221A6000E000BF00BF80BD00BF71
:1002DC008C0000208000002098000020000C0140C1
:1002EC0054000020000000205800002004000020D2
:1002FC005C0000200800002080B500AF0C4B1B6890
:10030C00012B13D1FA2000F0ADFE0A4B1B68013310
:10031C005A4203F0030302F0030258BF5342054A4A
:10032C001360044B1B68184600F006F800BF80BD34
:10033C00700000200C00002080B582B000AF786007
:10034C007B68032B4AD801A252F823F069030008FA
:10035C0089030008A9030008C903000801220F2122
:10036C00214801F050FA214B1B68184600F040F868
:10037C00002201211C4801F046FA30E001220F2135
:10038C00194801F040FA194B5B68184600F030F838
:10039C0000220221144801F036FA20E001220F213C
:1003AC00114801F030FA114B9B68184600F020F808
:1003BC00002204210C4801F026FA10E001220F2142
:1003CC00094801F020FA094BDB68184600F010F8D8
:1003DC0000220821044801F016FA00E000BF00BF1B
:1003EC000837BD4680BD00BF000C01401000002046
:1003FC0080B582B000AF78607B68092B00F2A881D1
:10040C0001A252F823F000BF3D0400088D0400083F
:10041C00DD0400082D0500087D050008CD05000849
:10042C001D0600086D060008BD0600080D07000833
:10043C0000222021C94801F0E6F900224021C748DA
:10044C0001F0E1F900228021C44801F0DCF900221E
:10045C004FF48071C14801F0D6F900224FF40071BD
:10046C00BE4801F0D0F900224FF48061BB4801F086
:10047C00CAF901224FF40061B84801F0C4F968E1EF
:10048C0001222021B54801F0BEF900224021B348D9
:10049C0001F0B9F900228021B04801F0B4F9012231
:1004AC004FF48071AD4801F0AEF901224FF40071A8
:1004BC00AA4801F0A8F901224FF48061A74801F085
:1004CC00A2F901224FF40061A44801F09CF940E12B
:1004DC0000222021A14801F096F9002240219F48DA
:1004EC0001F091F9012280219C4801F08CF9002245
:1004FC004FF48071994801F086F900224FF4007195
:10050C00964801F080F901224FF48061934801F084
:10051C007AF900224FF40061904801F074F918E167
:10052C00002220218D4801F06EF9002240218B48D9
:10053C0001F069F900228021884801F064F9002259
:10054C004FF48071854801F05EF901224FF400717F
:10055C00824801F058F901224FF480617F4801F084
:10056C0052F900224FF400617C4801F04CF9F0E0A4
:10057C0001222021794801F046F9002240217748D8
:10058C0001F041F900228021744801F03CF901226C
:10059C004FF48071714801F036F901224FF400716B
:1005AC006E4801F030F900224FF480616B4801F085
:1005BC002AF900224FF40061684801F024F9C8E0E0
:1005CC0000222021654801F01EF9012240216348D8
:1005DC0001F019F900228021604801F014F9002281
:1005EC004FF480715D4801F00EF901224FF4007157
:1005FC005A4801F008F900224FF48061574801F085
:10060C0002F900224FF40061544801F0FCF8A0E01C
:10061C0000222021514801F0F6F8012240214F48D8
:10062C0001F0F1F8002280214C4801F0ECF8002296
:10063C004FF48071494801F0E6F800224FF4007144
:10064C00464801F0E0F800224FF48061434801F085
:10065C00DAF800224FF40061404801F0D4F878E059
:10066C00002220213D4801F0CEF8002240213B48D9
:10067C0001F0C9F800228021384801F0C4F80122A9
:10068C004FF48071354801F0BEF801224FF400712F
:10069C00324801F0B8F801224FF480612F4801F084
:1006AC00B2F801224FF400612C4801F0ACF850E094
:1006BC0000222021294801F0A6F8002240212748D9
:1006CC0001F0A1F800228021244801F09CF80022BE
:1006DC004FF48071214801F096F800224FF400711C
:1006EC001E4801F090F800224FF480611B4801F085
:1006FC008AF800224FF40061184801F084F828E0D1
:10070C0000222021154801F07EF8002240211348D8
:10071C0001F079F800228021104801F074F80022D1
:10072C004FF480710D4801F06EF801224FF4007106
:10073C000A4801F068F800224FF48061074801F084
:10074C0062F800224FF40061044801F05CF800E00C
:10075C0000BF00BF0837BD4680BD00BF000C014084
:10076C0080B500AF1E4B1B680D2B11D00D2B2EDC52
:10077C000B2B02D00C2B16D029E01A4B1B68012B2B
:10078C0027D1184B00221A60154B0D221A6020E05D
:10079C00144B1B68012B1ED1124B00221A60104BFC
:1007AC000C221A6017E00F4B1B68012B15D10D4B57
:1007BC0000221A600A4B01221A600B4B1B684FF483
:1007CC007A7202FB03F3184600F014FC05E000BF3C
:1007DC0004E000BF02E000BF00E000BF00BF80BD2E
:1007EC0064000020540000202000002080B500AFE1
:1007FC00AA4B1B68032B00F28A8201A252F823F049
:10080C001D08000881080008FF0B0008D50A000825
:10081C0001222021A24800F0F6FF01228021A048ED
:10082C0000F0F1FF012240219D4800F0ECFF012275
:10083C004FF480719A4800F0E6FF01224FF480617A
:10084C00974800F0E0FF01224FF40071944800F04B
:10085C00DAFF924B01221A60924B1B684FF47A72AA
:10086C0002FB03F3184600F0C5FB4FF47A7000F05E
:10087C00DDFB53E28C4B1B68012B08D14FF47A70D3
:10088C0000F0D4FB894B1B680133884A1360854BFD
:10089C001A68864B1B68D31A854A82FB0312921086
:1008AC00DB17D31A834A13607E4B1A687F4B1B6885
:1008BC00D11A7F4B83FB01239A10CB17D21A134604
:1008CC009B0013445B00CA1A7A4B5A600022202109
:1008DC00734800F098FF01228021714800F093FFCB
:1008EC00012240216E4800F08EFF704B1A68724B4B
:1008FC001B689A4231DC704B1A686C4B1B68D31A1C
:10090C006B4A82FB03129210DB17D31A694A93606D
:10091C00694B1A68654B1B68D11A654B83FB012325
:10092C009A10CB17D21A13469B0013445B00CA1AB9
:10093C00604BDA6001224FF48071594800F063FF7C
:10094C0000224FF48061564800F05DFF01224FF405
:10095C000071534800F057FF7DE0574B1A68574B16
:10096C001B681A44514B1B689A4237DB524B1A686E
:10097C00524B1B681A444D4B1B68D31A4C4A82FBD2
:10098C0003129210DB17D31A4A4A93604A4B1A6827
:10099C004A4B1B681A44454B1B68D11A444B83FBCA
:1009AC0001239A10CB17D21A13469B0013445B00F9
:1009BC00CA1A404BDA6001224FF48071384800F0BB
:1009CC0022FF01224FF48061354800F01CFF002209
:1009DC004FF40071324800F016FF3CE0364B1A68B9
:1009EC00364B1B681A442F4B1B681A442F4B1B6841
:1009FC00D31A2F4A82FB03129210DB17D31A2D4AFB
:100A0C0093602D4B1A682D4B1B681A44254B1B68A1
:100A1C001A44264B1B68D11A254B83FB01239A10D1
:100A2C00CB17D21A13469B0013445B00CA1A214BF6
:100A3C00DA6000224FF48071194800F0E4FE0122C4
:100A4C004FF48061164800F0DEFE01224FF4007175
:100A5C00134800F0D8FE1A4B1B68012B09D1184B18
:100A6C0000221A600D4B0B221A6047F2305000F036
:100A7C00C1FA144B1B68012B40F04B81074B03222E
:100A8C001A600A4B00221A600B4B1B684FF47A72E7
:100A9C0002FB03F3184600F0ADFA3AE164000020C3
:100AAC0000080140200000206C00002060000020A5
:100ABC0067666666100000202400002028000020D5
:100ACC005400002068000020954B1B68012B08D1B6
:100ADC004FF47A7000F0AAFA924B1B680133914ADA
:100AEC001360914B1A688F4B1B68D31A8F4A82FB89
:100AFC0003129210DB17D31A8D4A13608A4B1A68B3
:100B0C00884B1B68D11A894B83FB01239A10CB1796
:100B1C00D21A13469B0013445B00CA1A844B5A60CA
:100B2C0001222021834800F06EFE002280218148A2
:100B3C0000F069FE012240217E4800F064FE7A4BF1
:100B4C001A687D4B1B681A44764B1B68D31A774A7C
:100B5C0082FB03129210DB17D31A754A9360724B07
:100B6C001A68754B1B681A446E4B1B68D11A6F4B75
:100B7C0083FB01239A10CB17D21A13469B00134404
:100B8C005B00CA1A6A4BDA6000224FF48071694824
:100B9C0000F039FE01224FF48061664800F033FE0C
:100BAC0001224FF40071634800F02DFE634B1B686B
:100BBC00012B09D1614B00221A60614B0B221A6088
:100BCC0047F2305000F016FA5E4B1B68012B40F0D8
:100BDC00A2805B4B02221A60524B00221A60564BC9
:100BEC001B684FF47A7202FB03F3184600F002FA0A
:100BFC0091E04B4B1B68012B08D14FF47A7000F03D
:100C0C0015FA484B1B680133464A13604A4B1A6865
:100C1C00444B1B68D31A454A82FB03129210DB1714
:100C2C00D31A434A1360444B1A683E4B1B68D11AC3
:100C3C003E4B83FB01239A10CB17D21A13469B0011
:100C4C0013445B00CA1A3A4B5A60012220213948DE
:100C5C0000F0D9FD01228021364800F0D4FD00229D
:100C6C004021344800F0CFFD334B1A682D4B1B68E4
:100C7C00D31A2E4A82FB03129210DB17D31A2C4A7A
:100C8C0093602D4B1A68274B1B68D11A274B83FB9B
:100C9C0001239A10CB17D21A13469B0013445B0006
:100CAC00CA1A234BDA6000224FF48071214800F0FD
:100CBC00AAFD01224FF480611E4800F0A4FD012220
:100CCC004FF400711B4800F09EFD1C4B1B68012B60
:100CDC0009D11A4B00221A60194B0B221A6047F2E9
:100CEC00305000F087F9174B1B68012B15D1144BB2
:100CFC0001221A600B4B00221A60134B1B684FF435
:100D0C007A7202FB03F3184600F074F905E000BF99
:100D1C0004E000BF02E000BF00E000BF00BF80BDE8
:100D2C006C000020600000202400002067666666CE
:100D3C001000002000080140280000205400002072
:100D4C0064000020680000202000002080B500AF67
:100D5C0000F058FA00F01AF800F0A0F800F052F881
:100D6C00094801F0A1F90A2000F044F90A2000F02A
:100D7C005DF90A2000F076F9FFF738FDFFF7F0FC7B
:100D8C00FFF7BAFAF8E700BFA400002080B590B0D6
:100D9C0000AF07F1180328220021184601F03CFD92
:100DAC003B1D00221A605A609A60DA601A610223B5
:100DBC00BB610123BB621023FB6200237B6307F141
:100DCC001803184600F038FD0346002B01D000F044
:100DDC00D5F80F237B600023BB600023FB6000234E
:100DEC003B6100237B613B1D0021184600F0A4FFF2
:100DFC000346002B01D000F0C1F800BF4037BD46C0
:100E0C0080BD000080B586B000AF07F1080300225A
:100E1C001A605A609A60DA603B4600221A605A6087
:100E2C001D4B4FF080421A601B4B41F63F725A60CB
:100E3C00194B00229A60184B0922DA60164B0022DB
:100E4C001A61154B00229A61134801F0DDF8034634
:100E5C00002B01D000F092F84FF48053BB6007F1E7
:100E6C00080319460C4801F073FA0346002B01D015
:100E7C0000F084F800233B6000237B603B4619465E
:100E8C00054801F03BFC0346002B01D000F076F83E
:100E9C0000BF1837BD4680BDA400002080B586B0C9
:100EAC0000AF07F1080300221A605A609A60DA60FA
:100EBC00294B9B69284A43F004039361264B9B6999
:100ECC0003F004037B607B68234B9B69224A43F04D
:100EDC0008039361204B9B6903F008033B603B685C
:100EEC0000224FF4FC611D4800F08DFC002240F6FE
:100EFC00EF711B4800F087FC4FF4FC63BB600123CF
:100F0C00FB6000233B6102237B6107F10803194658
:100F1C00124800F0E7FA40F6EF73BB600123FB6068
:100F2C0000233B6102237B6107F1080319460C483F
:100F3C0000F0D8FA4FF46043BB600023FB60012340
:100F4C003B6107F108031946054800F0CBFA00BFD6
:100F5C001837BD4680BD00BF00100240000801409C
:100F6C00000C014080B582B000AF786000F00CF846
:100F7C00FFF7E6F800BF0837BD4680BD80B400AF70
:100F8C0072B600BFFEE7000080B400AF134B1B68C5
:100F9C00013B124A1360124B1B68013B104A136051
:100FAC00104B1B68013B0F4A13600C4B1B68002B4A
:100FBC0002D10D4B01221A60094B1B68002B02D188
:100FCC000A4B01221A60074B1B68002B02D1084BFD
:100FDC0001221A6000BFBD4680BC7047740000201F
:100FEC00780000207C000020680000206C000020AD
:100FFC007000002080B483B000AF7860084B0022F2
:10100C001A607B68074A82FB03129210DB17D31A13
:10101C00054A136000BF0C37BD4680BC704700BF4B
:10102C0068000020676666667400002080B483B098
:10103C0000AF7860084B00221A607B68074A82FB7D
:10104C0003129210DB17D31A054A136000BF0C373A
:10105C00BD4680BC704700BF6C00002067666666AA
:10106C007800002080B483B000AF7860084B002279
:10107C001A607B68074A82FB03129210DB17D31AA3
:10108C00054A136000BF0C37BD4680BC704700BFDB
:10109C0070000020676666667C00002080B485B016
:1010AC0000AF154B9B69144A43F001039361124B3B
:1010BC009B6903F00103BB60BB680F4BDB690E4AF5
:1010CC0043F08053D3610C4BDB6903F080537B609E
:1010DC007B680A4B5B68FB60FB6823F0E063FB609A
:1010EC00FB6843F08063FB60044AFB68536000BFFD
:1010FC001437BD4680BC7047001002400000014010
:10110C0080B584B000AF78607B681B68B3F1804F0A
:10111C0013D10C4BDB690B4A43F00103D361094B30
:10112C00DB6903F00103FB60FB68002200211C203B
:10113C0000F0A1F91C2000F0BAF900BF1037BD4631
:10114C0080BD00BF0010024080B400AFFEE780B449
:10115C0000AFFEE780B400AFFEE780B400AFFEE75F
:10116C0080B400AFFEE780B400AF00BFBD4680BCCA
:10117C00704780B400AF00BFBD4680BC704780B4E0
:10118C0000AF00BFBD4680BC704780B500AF00F01B
:10119C007FF800BF80BD000080B500AF024800F0B2
:1011AC00CFFF00BF80BD00BFA400002080B400AF03
:1011BC0000BFBD4680BC70470C480D490D4A00234A
:1011CC0002E0D458C4500433C4188C42F9D30A4AF0
:1011DC000A4C002301E013600432A242FBD3FFF758
:1011EC00E5FF01F0F5FAFFF7B1FD704700000020B4
:1011FC00380000207428000838000020F00000207F
:10120C00FEE7000080B500AF084B1B68074A43F0AF
:10121C0010031360032000F023F90F2000F008F8EE
:10122C00FFF73CFF0023184680BD00BF00200240A2
:10123C0080B582B000AF7860124B1A68124B1B78E5
:10124C0019464FF47A73B3FBF1F3B2FBF3F3184680
:10125C0000F03BF90346002B01D001230EE07B6824
:10126C000F2B0AD8002279684FF0FF3000F003F9F9
:10127C00064A7B681360002300E0012318460837F8
:10128C00BD4680BD2C000020340000203000002022
:10129C0080B400AF054B1B781A46054B1B681344F2
:1012AC00034A136000BFBD4680BC70473400002069
:1012BC00EC00002080B400AF024B1B681846BD4602
:1012CC0080BC7047EC00002080B485B000AF786023
:1012DC007B6803F00703FB600C4BDB68BB60BA68F0
:1012EC004FF6FF031340BB60FB681A02BB68134345
:1012FC0043F0BF6343F40033BB60044ABB68D36064
:10130C0000BF1437BD4680BC704700BF00ED00E045
:10131C0080B400AF044BDB681B0A03F007031846CC
:10132C00BD4680BC704700BF00ED00E080B483B0C8
:10133C0000AF0346FB7197F90730002B0BDBFB79F1
:10134C0003F01F02064997F907305B09012000FAE8
:10135C0002F241F8232000BF0C37BD4680BC704719
:10136C0000E100E080B483B000AF03463960FB714C
:10137C0097F90730002B0ADB3B68DAB20C4997F976
:10138C0007301201D2B20B4483F800230AE03B6809
:10139C00DAB20849FB7903F00F03043B1201D2B215
:1013AC000B441A7600BF0C37BD4680BC704700BF9B
:1013BC0000E100E000ED00E080B489B000AFF8601F
:1013CC00B9607A60FB6803F00703FB61FB69C3F14A
:1013DC000703042B28BF0423BB61FB690433062BD2
:1013EC0002D9FB69033B00E000237B614FF0FF3225
:1013FC00BB6902FA03F3DA43BB681A407B699A4073
:10140C004FF0FF317B6901FA03F3D9437B680B4042
:10141C00134318462437BD4680BC704780B582B054
:10142C0000AF78607B68013BB3F1807F01D301236F
:10143C000FE00A4A7B68013B53600F214FF0FF30ED
:10144C00FFF790FF054B00229A60044B07221A60AD
:10145C00002318460837BD4680BD00BF10E000E0F1
:10146C0080B582B000AF78607868FFF72DFF00BFC1
:10147C000837BD4680BD80B586B000AF0346B96065
:10148C007A60FB7300237B61FFF742FF78617A6817
:10149C00B9687869FFF790FF024697F90F3011464B
:1014AC001846FFF75FFF00BF1837BD4680BD80B5FB
:1014BC0082B000AF0346FB7197F907301846FFF76F
:1014CC0035FF00BF0837BD4680BD80B582B000AF88
:1014DC0078607868FFF7A2FF034618460837BD46C8
:1014EC0080BD000080B48BB000AF78603960002301
:1014FC007B6200233B6248E101227B6A02FA03F320
:10150C00FB613B681B68FA691340BB61BA69FB69F4
:10151C009A4240F037813B685B68A34A93425ED0A5
:10152C00A14A934275D8A14A934258D09F4A9342FC
:10153C006FD89F4A934252D09D4A934269D89D4A94
:10154C0093424CD09B4A934263D89B4A934246D0D9
:10155C00994A93425DD8122B2AD8122B59D801A242
:10156C0052F823F0EB150008C5150008D715000834
:10157C00191600081F1600081F1600081F16000871
:10158C001F1600081F1600081F1600081F1600085B
:10159C001F1600081F1600081F1600081F1600084B
:1015AC001F1600081F160008CD150008E1150008CD
:1015BC00824A934213D02CE03B68DB683B6229E003
:1015CC003B68DB6804333B6224E03B68DB68083330
:1015DC003B621FE03B68DB680C333B621AE03B6804
:1015EC009B68002B02D104233B6213E03B689B6891
:1015FC00012B05D108233B627B68FA691A6109E06B
:10160C0008233B627B68FA695A6103E000233B6262
:10161C0000E000BFBB69FF2B01D87B6801E07B6851
:10162C0004337B61BB69FF2B02D87B6A9B0002E011
:10163C007B6A083B9B003B617B691A680F213B6905
:10164C0001FA03F3DB431A40396A3B6901FA03F3ED
:10165C001A437B691A603B685B6803F08053002B6C
:10166C0000F09080564B9B69554A43F001039361FF
:10167C00534B9B6903F00103BB60BB68514A7B6A07
:10168C009B08023352F82330FB607B6A03F00303A0
:10169C009B000F2202FA03F3DB43FA681340FB6052
:1016AC007B68494A93420DD07B68484A934207D0E5
:1016BC007B68474A934201D1022304E0032302E0F2
:1016CC00012300E000237A6A02F0030292009340A7
:1016DC00FA681343FB603B497B6A9B080233FA6848
:1016EC0041F823203B685B6803F48033002B06D061
:1016FC00384B1A683749BB6913430B6006E0354B0E
:10170C001A68BB69DB43334913400B603B685B6869
:10171C0003F40033002B06D02E4B5A682D49BB69BD
:10172C0013434B6006E02B4B5A68BB69DB432949DA
:10173C0013404B603B685B6803F48013002B06D0AE
:10174C00244B9A682349BB6913438B6006E0214BF9
:10175C009A68BB69DB431F4913408B603B685B682D
:10176C0003F40013002B06D01A4BDA681949BB6935
:10177C001343CB6006E0174BDA68BB69DB431549B2
:10178C001340CB607B6A01337B623B681A687B6ACF
:10179C0022FA03F3002B7FF4AFAE00BF00BF2C374F
:1017AC00BD4680BC704700BF0000321000003110F5
:1017BC000000221000002110000012100000111077
:1017CC00001002400000014000080140000C0140E4
:1017DC00001001400004014080B485B000AF786077
:1017EC000B467B807B689A687B881340002B02D069
:1017FC000123FB7301E00023FB73FB7B18461437BA
:10180C00BD4680BC704780B483B000AF78600B4697
:10181C007B8013467B707B78002B03D07A887B68A7
:10182C001A6103E07B881A047B681A6100BF0C37CD
:10183C00BD4680BC7047000080B586B000AF7860B4
:10184C007B68002B01D101236CE27B681B6803F0E1
:10185C000103002B00F08780924B5B6803F00C03B4
:10186C00042B0CD08F4B5B6803F00C03082B12D1AC
:10187C008C4B5B6803F48033B3F5803F0BD1894B01
:10188C001B6803F40033002B6CD07B685B68002B67
:10189C0068D1012346E27B685B68B3F5803F06D1D3
:1018AC00804B1B687F4A43F4803313602EE07B68C7
:1018BC005B68002B0CD17B4B1B687A4A23F480337A
:1018CC001360784B1B68774A23F4802313601DE068
:1018DC007B685B68B3F5A02F0CD1724B1B68714A07
:1018EC0043F4802313606F4B1B686E4A43F48033C0
:1018FC0013600BE06B4B1B686A4A23F48033136054
:10190C00684B1B68674A23F4802313607B685B6811
:10191C00002B13D0FFF7CEFC386108E0FFF7CAFCB0
:10192C0002463B69D31A642B01D90323FAE15D4BC0
:10193C001B6803F40033002BF0D014E0FFF7BAFC63
:10194C00386108E0FFF7B6FC02463B69D31A642BFA
:10195C0001D90323E6E1534B1B6803F40033002B3E
:10196C00F0D100E000BF7B681B6803F00203002B82
:10197C0063D04C4B5B6803F00C03002B0BD0494B32
:10198C005B6803F00C03082B1CD1464B5B6803F41B
:10199C008033002B16D1434B1B6803F00203002B42
:1019AC0005D07B681B69012B01D00123BAE13D4BAB
:1019BC001B6823F0F8027B685B69DB003949134331
:1019CC000B603AE07B681B69002B20D0364B012260
:1019DC001A60FFF76FFC386108E0FFF76BFC0246FA
:1019EC003B69D31A022B01D903239BE12D4B1B68B6
:1019FC0003F00203002BF0D02A4B1B6823F0F802F3
:101A0C007B685B69DB00274913430B6015E0264BB1
:101A1C0000221A60FFF74EFC386108E0FFF74AFC21
:101A2C0002463B69D31A022B01D903237AE11D4BE1
:101A3C001B6803F00203002BF0D17B681B6803F0DA
:101A4C000803002B3AD07B689B69002B19D0174BED
:101A5C0001221A60FFF72EFC386108E0FFF72AFC20
:101A6C0002463B69D31A022B01D903235AE10D4BD1
:101A7C005B6A03F00203002BF0D0012000F0A6FA01
:101A8C001CE00A4B00221A60FFF714FC38610FE0CF
:101A9C00FFF710FC02463B69D31A022B08D903232B
:101AAC0040E100BF0010024000004242800442426C
:101ABC009E4B5B6A03F00203002BE9D17B681B6829
:101ACC0003F00403002B00F0A6800023FB75974B5A
:101ADC00DB6903F08053002B0DD1944BDB69934AE7
:101AEC0043F08053D361914BDB6903F08053BB60AF
:101AFC00BB680123FB758E4B1B6803F48073002BB2
:101B0C0018D18B4B1B688A4A43F480731360FFF720
:101B1C00D1FB386108E0FFF7CDFB02463B69D31AD5
:101B2C00642B01D90323FDE0814B1B6803F4807304
:101B3C00002BF0D07B68DB68012B06D17B4B1B6A3A
:101B4C007A4A43F0010313622DE07B68DB68002BBB
:101B5C000CD1764B1B6A754A23F001031362734B4D
:101B6C001B6A724A23F0040313621CE07B68DB6877
:101B7C00052B0CD16D4B1B6A6C4A43F004031362AA
:101B8C006A4B1B6A694A43F0010313620BE0674B13
:101B9C001B6A664A23F001031362644B1B6A634A97
:101BAC0023F0040313627B68DB68002B15D0FFF76E
:101BBC0081FB38610AE0FFF77DFB02463B69D31AD3
:101BCC0041F28832934201D90323ABE0574B1B6A95
:101BDC0003F00203002BEED014E0FFF76BFB38612F
:101BEC000AE0FFF767FB02463B69D31A41F28832E1
:101BFC00934201D9032395E04C4B1B6A03F002037B
:101C0C00002BEED1FB7D012B05D1484BDB69474AFC
:101C1C0023F08053D3617B68DB69002B00F081805B
:101C2C00424B5B6803F00C03082B61D07B68DB69CB
:101C3C00022B46D13F4B00221A60FFF73BFB386169
:101C4C0008E0FFF737FB02463B69D31A022B01D998
:101C5C00032367E0354B1B6803F00073002BF0D1B6
:101C6C007B681B6AB3F5803F08D1304B5B6823F46B
:101C7C0000327B689B682D4913434B602B4B5B6890
:101C8C0023F474127B68196A7B685B6A0B432749DF
:101C9C0013434B60274B01221A60FFF70BFB386193
:101CAC0008E0FFF707FB02463B69D31A022B01D968
:101CBC00032337E01D4B1B6803F00073002BF0D09F
:101CCC002FE01C4B00221A60FFF7F4FA386108E091
:101CDC00FFF7F0FA02463B69D31A022B01D9032312
:101CEC0020E0124B1B6803F00073002BF0D118E0BE
:101CFC007B68DB69012B01D1012313E00B4B5B6883
:101D0C00FB60FB6803F480327B681B6A9A4206D145
:101D1C00FB6803F470127B685B6A9A4201D0012362
:101D2C0000E0002318461837BD4680BD0010024065
:101D3C00007000406000424280B584B000AF786013
:101D4C0039607B68002B01D10123D0E06A4B1B6802
:101D5C0003F007033A689A4210D9674B1B6823F0CB
:101D6C00070265493B6813430B60634B1B6803F028
:101D7C0007033A689A4201D00123B8E07B681B68DC
:101D8C0003F00203002B20D07B681B6803F00403D4
:101D9C00002B05D0594B5B68584A43F4E063536001
:101DAC007B681B6803F00803002B05D0534B5B6862
:101DBC00524A43F460535360504B5B6823F0F0027B
:101DCC007B689B684D4913434B607B681B6803F031
:101DDC000103002B40D07B685B68012B07D1474B7C
:101DEC001B6803F40033002B15D101237FE07B68C3
:101DFC005B68022B07D1414B1B6803F00073002B6F
:101E0C0009D1012373E03D4B1B6803F00203002B47
:101E1C0001D101236BE0394B5B6823F003027B6833
:101E2C005B68364913434B60FFF744FAF8600AE0ED
:101E3C00FFF740FA0246FB68D31A41F2883293420C
:101E4C0001D9032353E02D4B5B6803F00C027B6834
:101E5C005B689B009A42EBD1274B1B6803F007038E
:101E6C003A689A4210D2244B1B6823F0070222498D
:101E7C003B6813430B60204B1B6803F007033A6865
:101E8C009A4201D0012332E07B681B6803F0040303
:101E9C00002B08D0194B5B6823F4E0627B68DB688D
:101EAC00164913434B607B681B6803F00803002B37
:101EBC0009D0124B5B6823F460527B681B69DB0012
:101ECC000E4913434B6000F021F802460B4B5B6844
:101EDC001B0903F00F030A49CB5C22FA03F3094AEE
:101EEC001360094B1B681846FFF7A2F9002318462C
:101EFC001037BD4680BD00BF0020024000100240DC
:101F0C005C2800082C0000203000002090B48AB01F
:101F1C0000AF2A4B3C1D0FCB84E80F0040F201238D
:101F2C003B800023FB610023BB6100237B62002309
:101F3C007B6100233B62224B5B68FB61FB6903F016
:101F4C000C03042B02D0082B03D02DE01D4B3B625D
:101F5C002DE0FB699B0C03F00F0307F128021344DF
:101F6C0013F8243C7B61FB6903F48033002B13D002
:101F7C00134B5B685B0C03F0010307F1280213445D
:101F8C0013F8283CBB617B690E4A02FB03F2BB6968
:101F9C00B2FBF3F37B6204E07B690B4A02FB03F3B5
:101FAC007B627B6A3B6202E0064B3B6200BF3B6A92
:101FBC0018462837BD4690BC704700BF4C28000817
:101FCC000010024000127A0000093D0080B485B078
:101FDC0000AF78600A4B1B680A4AA2FB03235B0A1A
:101FEC007A6802FB03F3FB6000BFFB685A1EFA60C1
:101FFC00002BF9D100BF00BF1437BD4680BC704721
:10200C002C000020D34D621080B582B000AF7860F8
:10201C007B68002B01D1012341E07B6893F83D30B4
:10202C00DBB2002B06D17B68002283F83C20786859
:10203C00FFF766F87B68022283F83D207B681A68FC
:10204C007B6804331946104600F06AFA7B6801225B
:10205C0083F846207B68012283F83E207B680122AE
:10206C0083F83F207B68012283F840207B680122A3
:10207C0083F841207B68012283F842207B6801228F
:10208C0083F843207B68012283F844207B6801227B
:10209C0083F845207B68012283F83D2000231846F5
:1020AC000837BD4680BD000080B485B000AF7860B5
:1020BC007B6893F83D30DBB2012B01D0012335E076
:1020CC007B68022283F83D207B681B68DA687B689A
:1020DC001B6842F00102DA607B681B68164A934267
:1020EC0009D07B681B68B3F1804F04D07B681B68F8
:1020FC00124A934211D17B681B689B6803F007035B
:10210C00FB60FB68062B10D07B681B681A687B6829
:10211C001B6842F001021A6007E07B681B681A68B2
:10212C007B681B6842F001021A60002318461437C2
:10213C00BD4680BC704700BF002C0140000400402D
:10214C0080B582B000AF78607B681B681B6903F0B8
:10215C000203022B22D17B681B68DB6803F00203AD
:10216C00022B1BD17B681B686FF002021A617B6823
:10217C0001221A777B681B689B6903F00303002B11
:10218C0003D0786800F0B1F905E0786800F0A4F9A4
:10219C00786800F0B3F97B6800221A777B681B68BB
:1021AC001B6903F00403042B22D17B681B68DB68DA
:1021BC0003F00403042B1BD17B681B686FF0040233
:1021CC001A617B6802221A777B681B689B6903F48F
:1021DC004073002B03D0786800F087F905E078682D
:1021EC0000F07AF9786800F089F97B6800221A7798
:1021FC007B681B681B6903F00803082B22D17B68E2
:10220C001B68DB6803F00803082B1BD17B681B6879
:10221C006FF008021A617B6804221A777B681B68CE
:10222C00DB6903F00303002B03D0786800F05DF941
:10223C0005E0786800F050F9786800F05FF97B6889
:10224C0000221A777B681B681B6903F01003102BA4
:10225C0022D17B681B68DB6803F01003102B1BD1A9
:10226C007B681B686FF010021A617B6808221A7772
:10227C007B681B68DB6903F44073002B03D0786820
:10228C0000F033F905E0786800F026F9786800F082
:10229C0035F97B6800221A777B681B681B6903F091
:1022AC000103012B0ED17B681B68DB6803F0010373
:1022BC00012B07D17B681B686FF001021A617868EB
:1022CC00FEF750FE7B681B681B6903F08003802BB4
:1022DC000ED17B681B68DB6803F08003802B07D171
:1022EC007B681B686FF080021A61786800F067FAEF
:1022FC007B681B681B6903F04003402B0ED17B6885
:10230C001B68DB6803F04003402B07D17B681B681C
:10231C006FF040021A61786800F0F9F87B681B686E
:10232C001B6903F02003202B0ED17B681B68DB6834
:10233C0003F02003202B07D17B681B686FF0200271
:10234C001A61786800F032FA00BF0837BD4680BDCC
:10235C0080B584B000AF786039607B6893F83C300E
:10236C00012B01D10223B3E07B68012283F83C20CE
:10237C007B68022283F83D207B681B689B68FB60AE
:10238C00FB6823F07703FB60FB6823F47F43FB605F
:10239C007B681B68FA689A603B681B68B3F5005F42
:1023AC003ED0B3F5005F00F28780B3F5805F00F09C
:1023BC008580B3F5805F7FD8702B1AD0702B7BD8BB
:1023CC00602B50D0602B77D8502B3CD0502B73D82F
:1023DC00402B58D0402B6FD8302B64D0302B6BD87F
:1023EC00202B60D0202B67D8002B5CD0102B5AD020
:1023FC0062E07B6818683B6899683B685A683B6880
:10240C00DB6800F05CF97B681B689B68FB60FB6811
:10241C0043F07703FB607B681B68FA689A604EE0B8
:10242C007B6818683B6899683B685A683B68DB684E
:10243C0000F045F97B681B689A687B681B6842F45E
:10244C0080429A603BE07B6818683B6859683B683F
:10245C00DB681A4600F0BCF87B681B6850211846F4
:10246C0000F013F92BE07B6818683B6859683B68EF
:10247C00DB681A4600F0DAF87B681B6860211846A6
:10248C0000F003F91BE07B6818683B6859683B68EF
:10249C00DB681A4600F09CF87B681B6840211846E4
:1024AC0000F0F3F80BE07B681A683B681B68194670
:1024BC00104600F0EAF802E000BF00E000BF7B68C5
:1024CC00012283F83D207B68002283F83C20002306
:1024DC0018461037BD4680BD80B483B000AF78601D
:1024EC0000BF0C37BD4680BC704780B483B000AFD2
:1024FC00786000BF0C37BD4680BC704780B483B099
:10250C0000AF786000BF0C37BD4680BC704780B40C
:10251C0083B000AF786000BF0C37BD4680BC7047FD
:10252C0080B485B000AF786039607B681B68FB6055
:10253C007B68254A934207D07B68B3F1804F03D068
:10254C007B68224A934208D1FB6823F07003FB603E
:10255C003B685B68FA681343FB607B681A4A9342DA
:10256C0007D07B68B3F1804F03D07B68174A934246
:10257C0008D1FB6823F44073FB603B68DB68FA68A6
:10258C001343FB60FB6823F080023B685B691343D9
:10259C00FB607B68FA681A603B689A687B68DA6251
:1025AC003B681A687B689A627B68074A934203D13E
:1025BC003B681A697B681A637B6801225A6100BF09
:1025CC001437BD4680BC7047002C0140000400400D
:1025DC0080B487B000AFF860B9607A60FB681B6AA2
:1025EC007B61FB681B6A23F00102FB681A62FB68C3
:1025FC009B693B613B6923F0F0033B617B681B01EA
:10260C003A6913433B617B6923F00A037B617A6966
:10261C00BB6813437B61FB683A699A61FB687A6912
:10262C001A6200BF1C37BD4680BC704780B487B0AF
:10263C0000AFF860B9607A60FB681B6A23F0100287
:10264C00FB681A62FB689B697B61FB681B6A3B61D8
:10265C007B6923F470437B617B681B037A691343AA
:10266C007B613B6923F0A0033B61BB681B013A69AA
:10267C0013433B61FB687A699A61FB683A691A6299
:10268C0000BF1C37BD4680BC704780B485B000AF1E
:10269C00786039607B689B68FB60FB6823F0700393
:1026AC00FB603A68FB68134343F00703FB607B68ED
:1026BC00FA689A6000BF1437BD4680BC704780B47E
:1026CC0087B000AFF860B9607A603B60FB689B68CC
:1026DC007B617B6923F47F437B613B681A027B68D7
:1026EC001A43BB6813437A6913437B61FB687A69AD
:1026FC009A6000BF1C37BD4680BC704780B485B063
:10270C0000AF786039607B6893F83C30012B01D1C5
:10271C00022341E07B68012283F83C207B68022283
:10272C0083F83D207B681B685B68FB607B681B68DB
:10273C009B68BB60FB6823F07003FB603B681B6805
:10274C00FA681343FB607B681B68FA685A607B6805
:10275C001B68144A934209D07B681B68B3F1804F05
:10276C0004D07B681B68104A93420CD1BB6823F0E1
:10277C008003BB603B685B68BA681343BB607B68D3
:10278C001B68BA689A607B68012283F83D207B68DD
:10279C00002283F83C20002318461437BD4680BC29
:1027AC00704700BF002C01400004004080B483B08F
:1027BC0000AF786000BF0C37BD4680BC704780B45A
:1027CC0083B000AF786000BF0C37BD4680BC70474B
:1027DC0070B500260C4D0D4C641BA410A64209D1FB
:1027EC0000F022F800260A4D0A4C641BA410A642E5
:1027FC0005D170BD55F8043B98470136EEE755F806
:10280C00043B98470136F2E76C2800086C28000856
:10281C006C2800087028000803460244934200D13B
:10282C00704703F8011BF9E7F8B500BFF8BC08BC0A
:10283C009E467047F8B500BFF8BC08BC9E46704772
:10284C0002030405060708090A0B0C0D0E0F1010E5
:10285C000000000000000000010203040607080944
:04286C00310100082E
:042870000D0100084E
:102874006400000064000000640000000300000025
:10288400080000000000000000000000000000003C
:102894000A00000007000000030000000024F40008
:0828A40010000000010000001B
:04000005080011C519
:00000001FF
