:020000040800F2
:1000000000280020F9130008891300088F13000846
:10001000951300089B130008A113000800000000BE
:10002000000000000000000000000000A71300080E
:10003000B313000800000000BF130008CB13000832
:10004000411400084114000841140008411400083C
:10005000411400084114000841140008411400082C
:10006000411400084114000841140008411400081C
:10007000411400084114000841140008411400080C
:1000800041140008411400084114000841140008FC
:1000900041140008411400084114000841140008EC
:1000A00041140008411400084114000841140008DC
:1000B000D913000841140008000000004114000892
:1000C0004114000800000000000000004114000876
:1000D0000000000041140008411400080000000066
:1000E00041140008411400084114000800000000F9
:1000F0000000000000000000000000000000000000
:0C01000000000000000000005FF808F1A3
:10010C0010B5054C237833B9044B13B10448AFF345
:10011C0000800123237010BD3C0000200000000073
:10012C00982A000808B5034B1BB103490348AFF3E9
:10013C00008008BD0000000040000020982A000844
:10014C0080B500AF5D4B1B685D4A13605D4B1B684F
:10015C005A4A13604FF400515B4801F057FC0346B8
:10016C001A46584B1A60564B1A68544B1B689A42E5
:10017C0026D1524B1A68534B1B689A4220D1534BD1
:10018C001A684F4B1B689A420ED04D4B1B684F4A56
:10019C0013604E4B1B68002B12D14D4B64221A601E
:1001AC004C4B01221A600BE0494B1B68013B484A3F
:1001BC001360474B1B68002B02D1444B01221A6081
:1001CC003E4B5B683E4A53603E4B5B683B4A536018
:1001DC004FF480413C4801F019FC03461A46394B58
:1001EC005A60374B5A68354B5B689A4226D1334B71
:1001FC005A68344B5B689A4220D1344B5A68304B66
:10020C005B689A420ED02E4B5B68304A53602F4B82
:10021C005B68002B12D1304B64221A602F4B0122E9
:10022C001A600BE02C4B1B68013B2B4A13602A4BCA
:10023C001B68002B02D1254B01225A601F4B9B6877
:10024C001F4A93601F4B9B681C4A93604FF40041FC
:10025C001D4801F0DBFB03461A461A4B9A60184BFB
:10026C009A68164B9B689A4226D1144B9A68154B88
:10027C009B689A4220D1154B9A68114B9B689A4205
:10028C000ED00F4B9B68114A9360104B9B68002B50
:10029C0012D1134B64221A60124B01221A600BE02C
:1002AC000F4B1B68013B0E4A13600D4B1B68002B58
:1002BC0002D1064B01229A6000BF80BD9000002045
:1002CC00840000209C000020000C0140A8000020AD
:1002DC000000002058000020040000205C000020DA
:1002EC00080000206000002080B483B000AF78606C
:1002FC0039607B68184A82FB03129210DB17D31A01
:10030C00164A13607968144B83FB01239A10CB17A0
:10031C00D21A13469B0013445B00CA1A0F4B5A6047
:10032C003B680D4A82FB03129210DB17D31A0B4A5F
:10033C0093603968084B83FB01239A10CB17D21AB0
:10034C0013469B0013445B00CA1A044BDA6000BFCF
:10035C000C37BD4680BC704767666666100000208F
:10036C0080B483B000AF78607B680D4A82FB0312C7
:10037C009210DB17D31A0B4A13607968084B83FB76
:10038C0001239A10CB17D21A13469B0013445B001F
:10039C00CA1A044B5A6000BF0C37BD4680BC70476C
:1003AC00676666661000002080B483B000AF78608A
:1003BC007B680D4A82FB03129210DB17D31A0B4A8F
:1003CC0093607968084B83FB01239A10CB17D21AE0
:1003DC0013469B0013445B00CA1A044BDA6000BF3F
:1003EC000C37BD4680BC70476766666610000020FF
:1003FC0080B500AF0C4B1B68012B13D1FA2000F019
:10040C004BFF0A4B1B6801335A4203F0030302F003
:10041C00030258BF5342054A1360044B1B6818462D
:10042C0000F006F800BF80BD740000200C00002016
:10043C0080B582B000AF78607B68032B4AD801A2EC
:10044C0052F823F06104000881040008A10400089C
:10045C00C104000801220F21214801F0EEFA214BC2
:10046C001B68184600F040F8002201211C4801F0DE
:10047C00E4FA30E001220F21194801F0DEFA194BA1
:10048C005B68184600F030F800220221144801F095
:10049C00D4FA20E001220F21114801F0CEFA114BC1
:1004AC009B68184600F020F8002204210C4801F04B
:1004BC00C4FA10E001220F21094801F0BEFA094BE1
:1004CC00DB68184600F010F800220821044801F0FF
:1004DC00B4FA00E000BF00BF0837BD4680BD00BFC6
:1004EC00000C01401000002080B582B000AF786095
:1004FC007B68092B00F2A88101A252F823F000BFFF
:10050C003505000885050008D505000825060008F6
:10051C0075060008C50600081507000865070008E1
:10052C00B50700080508000800222021C94801F081
:10053C0084FA00224021C74801F07FFA0022802172
:10054C00C44801F07AFA00224FF48071C14801F0DE
:10055C0074FA00224FF40071BE4801F06EFA0022CA
:10056C004FF48061BB4801F068FA01224FF400613E
:10057C00B84801F062FA68E101222021B54801F087
:10058C005CFA00224021B34801F057FA0022802186
:10059C00B04801F052FA01224FF48071AD4801F0DD
:1005AC004CFA01224FF40071AA4801F046FA0122DC
:1005BC004FF48061A74801F040FA01224FF400612A
:1005CC00A44801F03AFA40E100222021A14801F0B0
:1005DC0034FA002240219F4801F02FFA0122802199
:1005EC009C4801F02AFA00224FF48071994801F0DE
:1005FC0024FA00224FF40071964801F01EFA0122F1
:10060C004FF48061934801F018FA00224FF4006116
:10061C00904801F012FA18E1002220218D4801F0D7
:10062C000CFA002240218B4801F007FA00228021AD
:10063C00884801F002FA00224FF48071854801F0DD
:10064C00FCF901224FF40071824801F0F6F9012205
:10065C004FF480617F4801F0F0F900224FF4006103
:10066C007C4801F0EAF9F0E001222021794801F000
:10067C00E4F900224021774801F0DFF900228021C3
:10068C00744801F0DAF901224FF48071714801F0DD
:10069C00D4F901224FF400716E4801F0CEF900221A
:1006AC004FF480616B4801F0C8F900224FF40061EF
:1006BC00684801F0C2F9C8E000222021654801F029
:1006CC00BCF901224021634801F0B7F900228021D6
:1006DC00604801F0B2F900224FF480715D4801F0DE
:1006EC00ACF901224FF400715A4801F0A6F900222E
:1006FC004FF48061574801F0A0F900224FF40061DB
:10070C00544801F09AF9A0E000222021514801F050
:10071C0094F9012240214F4801F08FF900228021E9
:10072C004C4801F08AF900224FF48071494801F0DD
:10073C0084F900224FF40071464801F07EF9002242
:10074C004FF48061434801F078F900224FF40061C6
:10075C00404801F072F978E0002220213D4801F078
:10076C006CF9002240213B4801F067F900228021FE
:10077C00384801F062F901224FF48071354801F0DC
:10078C005CF901224FF40071324801F056F9012254
:10079C004FF480612F4801F050F901224FF40061B1
:1007AC002C4801F04AF950E000222021294801F0A0
:1007BC0044F900224021274801F03FF90022802112
:1007CC00244801F03AF900224FF48071214801F0DD
:1007DC0034F900224FF400711E4801F02EF900226A
:1007EC004FF480611B4801F028F900224FF400619E
:1007FC00184801F022F928E000222021154801F0C8
:10080C001CF900224021134801F017F90022802125
:10081C00104801F012F900224FF480710D4801F0DC
:10082C000CF901224FF400710A4801F006F900227C
:10083C004FF48061074801F000F900224FF4006189
:10084C00044801F0FAF800E000BF00BF0837BD46CD
:10085C0080BD00BF000C014080B500AF934B1B68FE
:10086C000D2B6CD00D2B00F318810B2B03D00C2B04
:10087C0000F0C88011E18E4B1B6819460220FFF76F
:10088C0033FD8C4B1B68012B0BD1FA2000F0E8FCDC
:10089C002021894801F0E9F84FF48071864801F075
:1008AC00E4F8864B1B68012B29D1844B00221A607B
:1008BC007F4B01221A607D4B0D221A6001222021F0
:1008CC007D4801F0BAF8002280217B4801F0B5F890
:1008DC0001224021784801F0B0F801224FF48071D8
:1008EC00754801F0AAF800224FF48061724801F0BB
:1008FC00A4F801224FF400716F4801F09EF8704B80
:10090C001B68012B0ED16E4B00221A60684B1B68C2
:10091C000133674A1360664B1B68642B02D1644B2E
:10092C0001221A60674B1B68012B40F0B880654BA5
:10093C0000221A605E4B1B68634A1360AFE05C4B8D
:10094C001B6819460320FFF7CFFC5A4B1B68012B81
:10095C000BD1FA2000F084FC8021574801F085F877
:10096C004FF48061544801F080F8544B1B68012B04
:10097C0029D1524B00221A604D4B01221A604B4B6D
:10098C000C221A60012220214B4801F056F801225A
:10099C008021494801F051F800224021464801F0DD
:1009AC004CF801224FF48071434801F046F80122C3
:1009BC004FF48061404801F040F800224FF4007180
:1009CC003D4801F03AF83E4B1B68012B0ED13C4BD5
:1009DC0000221A60364B1B680133354A1360344BC6
:1009EC001B68642B02D1324B01221A60354B1B68F9
:1009FC00012B56D1334B00221A602D4B1B68334A06
:100A0C0013604EE02A4B1B6819460420FFF76CFC60
:100A1C00284B1B68012B0BD1FA2000F021FC402144
:100A2C00254801F022F84FF40071234801F01DF81D
:100A3C00224B1B68012B11D1204B00221A601C4B3E
:100A4C0001221A60194B01221A601F4B1B684FF4CC
:100A5C007A7202FB03F3184600F0E6FB184B1B6896
:100A6C00012B0ED1164B00221A60114B1B6801335F
:100A7C000F4A13600E4B1B68642B02D10C4B0122E6
:100A8C001A60104B1B68012B0DD10E4B00221A6003
:100A9C00074B1B680E4A136005E000BF04E000BF63
:100AAC0002E000BF00E000BF00BF80BD6800002076
:100ABC002C0000207000002000080140580000208D
:100ACC005C0000206000002020000020240000209A
:100ADC002800002080B500AF8C4B1B68032B00F264
:100AEC00348201A252F823F0050B0008690B0008B0
:100AFC004D0E00083D0D000801222021844800F015
:100B0C009CFF01228021824800F097FF01224021A6
:100B1C007F4800F092FF01224FF480717C4800F076
:100B2C008CFF01224FF48061794800F086FF01228E
:100B3C004FF40071764800F080FF744B01221A606C
:100B4C00744B1B684FF47A7202FB03F3184600F0E7
:100B5C006BFB4FF47A7000F083FBFDE16E4B1B686E
:100B6C00012B08D14FF47A7000F07AFB6B4B1B68A9
:100B7C0001336A4A1360674B1A68684B1B68D31AB7
:100B8C001846FFF7EDFB00222021614800F055FFCD
:100B9C00012280215E4800F050FF012240215C4878
:100BAC0000F04BFF5D4B1A685D4B1B689A421ADCD8
:100BBC005B4B1A68594B1B68D31A1846FFF7F4FBAA
:100BCC0001224FF48071524800F037FF00224FF49D
:100BDC0080614F4800F031FF01224FF400714C4806
:100BEC0000F02BFF46E04E4B1A684E4B1B681A4424
:100BFC004A4B1B689A421DDB494B1A68494B1B68D0
:100C0C001A44464B1B68D31A1846FFF7CDFB01223A
:100C1C004FF480713E4800F010FF01224FF48061C8
:100C2C003B4800F00AFF00224FF40071384800F0F6
:100C3C0004FF1FE03A4B1A683A4B1B681A44354BB9
:100C4C001B681A44354B1B68D31A1846FFF7ACFBCC
:100C5C0000224FF480712E4800F0EFFE01224FF479
:100C6C0080612B4800F0E9FE01224FF40071284806
:100C7C0000F0E3FE2C4B1B68012B2DD12A4B0022DC
:100C8C001A60264B00221A604FF4FA7000F0E8FA52
:100C9C001E4B0B221A60002220211D4800F0CDFEB5
:100CAC00012280211A4800F0C8FE01224021184878
:100CBC0000F0C3FE00224FF48071154800F0BDFE19
:100CCC0001224FF48061124800F0B7FE01224FF46C
:100CDC0000710F4800F0B1FE144B1B68012B40F063
:100CEC0036810A4B03221A600C4B00221A604FF417
:100CFC007A7000F0B5FA0A4B1B684FF47A7202FB5B
:100D0C0003F3184600F090FA21E100BF68000020C0
:100D1C00000801402000002070000020640000202A
:100D2C002400002028000020580000206C00002027
:100D3C008A4B1B68012B08D14FF47A7000F090FAA3
:100D4C00874B1B680133864A1360864B1A68844BA9
:100D5C001B68D01A834B1A68834B1B681A44804B50
:100D6C001B68D31A1946FFF7BFFA012220217F48CE
:100D7C0000F063FE002280217C4800F05EFE012220
:100D8C0040217A4800F059FE00224FF480717748D8
:100D9C0000F053FE01224FF48061744800F04DFEC8
:100DAC0001224FF40071714800F047FE704B1B6834
:100DBC00012B2CD16E4B00221A60694B00221A6059
:100DCC00FA2000F04DFA6B4B0B221A600122202105
:100DDC00664800F032FE01228021644800F02DFEAE
:100DEC0001224021614800F028FE01224FF480715D
:100DFC005E4800F022FE01224FF480615B4800F057
:100E0C001CFE01224FF40071584800F016FE5A4B9C
:100E1C001B68012B40F09D80564B02221A60504BF0
:100E2C0000221A604FF47A7000F01AFA4E4B1B68CD
:100E3C004FF47A7202FB03F3184600F0F5F988E0E0
:100E4C00464B1B68012B08D14FF47A7000F008FA5E
:100E5C00434B1B680133424A1360434B1A68404BA7
:100E6C001B68D01A404B1A683D4B1B68D31A1946A5
:100E7C00FFF73AFA012220213C4800F0DEFD012266
:100E8C0080213A4800F0D9FD00224021374800F07B
:100E9C00D4FD00224FF48071344800F0CEFD0122C5
:100EAC004FF48061314800F0C8FD01224FF400710D
:100EBC002E4800F0C2FD2E4B1B68012B2DD12C4B64
:100ECC0000221A60264B00221A604FF4FA7000F0D0
:100EDC00C7F9284B0B221A6000222021234800F06E
:100EEC00ACFD01228021214800F0A7FD0122402108
:100EFC001E4800F0A2FD00224FF480711B4800F048
:100F0C009CFD01224FF48061184800F096FD0122EF
:100F1C004FF40071154800F090FD174B1B68012B26
:100F2C0019D1144B01221A600D4B00221A604FF498
:100F3C007A7000F095F9114B1B684FF47A7202FB32
:100F4C0003F3184600F070F905E000BF04E000BFA1
:100F5C0002E000BF00E000BF00BF80BD70000020B9
:100F6C00640000202400002028000020000801401C
:100F7C0058000020680000206C0000202000002099
:100F8C0080B500AF00F058FA00F01AF800F0A0F8A5
:100F9C0000F052F8094801F0B9F90A2000F044F9C0
:100FAC000A2000F05DF90A2000F076F9FFF792FDB7
:100FBC00FFF752FCFFF71CFAF8E700BFB400002063
:100FCC0080B590B000AF07F1180328220021184615
:100FDC0001F054FD3B1D00221A605A609A60DA60E1
:100FEC001A610223BB610123BB621023FB62002345
:100FFC007B6307F11803184600F050FD0346002BE5
:10100C0001D000F0D5F80F237B600023BB600023D8
:10101C00FB6000233B6100237B613B1D00211846D4
:10102C0000F0BCFF0346002B01D000F0C1F800BF5C
:10103C004037BD4680BD000080B586B000AF07F1DB
:10104C00080300221A605A609A60DA603B4600225C
:10105C001A605A601D4B4FF080421A601B4B41F6D0
:10106C003F725A60194B00229A60184B0922DA60C1
:10107C00164B00221A61154B00229A61134801F09D
:10108C00F5F80346002B01D000F092F84FF4805392
:10109C00BB6007F1080319460C4801F08BFA0346B4
:1010AC00002B01D000F084F800233B6000237B6010
:1010BC003B461946054801F053FC0346002B01D072
:1010CC0000F076F800BF1837BD4680BDB400002094
:1010DC0080B586B000AF07F1080300221A605A6091
:1010EC009A60DA60294B9B69284A43F004039361A8
:1010FC00264B9B6903F004037B607B68234B9B6945
:10110C00224A43F008039361204B9B6903F00803C8
:10111C003B603B6800224FF4FC611D4800F08DFCE5
:10112C00002240F6EF711B4800F087FC4FF4FC6383
:10113C00BB600123FB6000233B6102237B6107F151
:10114C0008031946124800F0E7FA40F6EF73BB604B
:10115C000123FB6000233B6102237B6107F1080341
:10116C0019460C4800F0D8FA4FF46043BB600023DA
:10117C00FB6001233B6107F108031946054800F0A9
:10118C00CBFA00BF1837BD4680BD00BF001002402F
:10119C0000080140000C014080B582B000AF7860BF
:1011AC0000F00CF8FEF7CCFF00BF0837BD4680BD41
:1011BC0080B400AF72B600BFFEE7000080B400AF91
:1011CC00134B1B68013B124A1360124B1B68013B0B
:1011DC00104A1360104B1B68013B0F4A13600C4BF9
:1011EC001B68002B02D10D4B01221A60094B1B68A6
:1011FC00002B02D10A4B01221A60074B1B68002BF3
:10120C0002D1084B01221A6000BFBD4680BC70475A
:10121C00780000207C000020800000206C00002062
:10122C00700000207400002080B483B000AF7860A0
:10123C00084B00221A607B68074A82FB031292104B
:10124C00DB17D31A054A136000BF0C37BD4680BCB0
:10125C00704700BF6C00002067666666780000204F
:10126C0080B483B000AF7860084B00221A607B68B2
:10127C00074A82FB03129210DB17D31A054A13603C
:10128C0000BF0C37BD4680BC704700BF700000200B
:10129C00676666667C00002080B483B000AF78601F
:1012AC00084B00221A607B68074A82FB03129210DB
:1012BC00DB17D31A054A136000BF0C37BD4680BC40
:1012CC00704700BF740000206766666680000020CF
:1012DC0080B485B000AF154B9B69144A43F00103F1
:1012EC009361124B9B6903F00103BB60BB680F4B0E
:1012FC00DB690E4A43F08053D3610C4BDB6903F07E
:10130C0080537B607B680A4B5B68FB60FB6823F057
:10131C00E063FB60FB6843F08063FB60044AFB689E
:10132C00536000BF1437BD4680BC704700100240AC
:10133C000000014080B584B000AF78607B681B680A
:10134C00B3F1804F13D10C4BDB690B4A43F0010313
:10135C00D361094BDB6903F00103FB60FB680022DE
:10136C0000211C2000F0A1F91C2000F0BAF900BFEC
:10137C001037BD4680BD00BF0010024080B400AFE6
:10138C00FEE780B400AFFEE780B400AFFEE780B4A8
:10139C0000AFFEE780B400AFFEE780B400AF00BF43
:1013AC00BD4680BC704780B400AF00BFBD4680BC5A
:1013BC00704780B400AF00BFBD4680BC704780B59D
:1013CC0000AF00F07FF800BF80BD000080B500AF1B
:1013DC00024800F0E7FF00BF80BD00BFB400002052
:1013EC0080B400AF00BFBD4680BC70470C480D49AF
:1013FC000D4A002302E0D458C4500433C4188C4264
:10140C00F9D30A4A0A4C002301E013600432A242C9
:10141C00FBD3FFF7E5FF01F00DFBFFF7B1FD7047C4
:10142C00000000203C000020D82A00083C000020CE
:10143C0000010020FEE7000080B500AF084B1B68E0
:10144C00074A43F010031360032000F023F90F2028
:10145C0000F008F8FFF73CFF0023184680BD00BFE2
:10146C000020024080B582B000AF7860124B1A6841
:10147C00124B1B7819464FF47A73B3FBF1F3B2FBA2
:10148C00F3F3184600F03BF90346002B01D001237F
:10149C000EE07B680F2B0AD8002279684FF0FF30E2
:1014AC0000F003F9064A7B681360002300E0012377
:1014BC0018460837BD4680BD30000020380000209B
:1014CC003400002080B400AF054B1B781A46054B46
:1014DC001B681344034A136000BFBD4680BC7047B1
:1014EC0038000020FC00002080B400AF024B1B68C9
:1014FC001846BD4680BC7047FC00002080B485B007
:10150C0000AF78607B6803F00703FB600C4BDB6873
:10151C00BB60BA684FF6FF031340BB60FB681A024E
:10152C00BB68134343F0BF6343F40033BB60044A0E
:10153C00BB68D36000BF1437BD4680BC704700BF8A
:10154C0000ED00E080B400AF044BDB681B0A03F035
:10155C0007031846BD4680BC704700BF00ED00E095
:10156C0080B483B000AF0346FB7197F90730002BB2
:10157C000BDBFB7903F01F02064997F907305B0977
:10158C00012000FA02F241F8232000BF0C37BD46BF
:10159C0080BC704700E100E080B483B000AF03462C
:1015AC003960FB7197F90730002B0ADB3B68DAB224
:1015BC000C4997F907301201D2B20B4483F800237F
:1015CC000AE03B68DAB20849FB7903F00F03043BED
:1015DC001201D2B20B441A7600BF0C37BD4680BC48
:1015EC00704700BF00E100E000ED00E080B489B07E
:1015FC0000AFF860B9607A60FB6803F00703FB6129
:10160C00FB69C3F10703042B28BF0423BB61FB69EF
:10161C000433062B02D9FB69033B00E000237B61FA
:10162C004FF0FF32BB6902FA03F3DA43BB681A408E
:10163C007B699A404FF0FF317B6901FA03F3D94380
:10164C007B680B40134318462437BD4680BC70475B
:10165C0080B582B000AF78607B68013BB3F1807FCE
:10166C0001D301230FE00A4A7B68013B53600F2131
:10167C004FF0FF30FFF790FF054B00229A60044BB0
:10168C0007221A60002318460837BD4680BD00BFEC
:10169C0010E000E080B582B000AF78607868FFF7AA
:1016AC002DFF00BF0837BD4680BD80B586B000AFAA
:1016BC000346B9607A60FB7300237B61FFF742FF3E
:1016CC0078617A68B9687869FFF790FF024697F9F4
:1016DC000F3011461846FFF75FFF00BF1837BD46A5
:1016EC0080BD80B582B000AF0346FB7197F907301F
:1016FC001846FFF735FF00BF0837BD4680BD80B5E3
:10170C0082B000AF78607868FFF7A2FF03461846F6
:10171C000837BD4680BD000080B48BB000AF786048
:10172C00396000237B6200233B6248E101227B6A23
:10173C0002FA03F3FB613B681B68FA691340BB6157
:10174C00BA69FB699A4240F037813B685B68A34AEF
:10175C0093425ED0A14A934275D8A14A934258D085
:10176C009F4A93426FD89F4A934252D09D4A9342CC
:10177C0069D89D4A93424CD09B4A934263D89B4A6A
:10178C00934246D0994A93425DD8122B2AD8122BF9
:10179C0059D801A252F823F01F180008F9170008B5
:1017AC000B1800084D1800085318000853180008AF
:1017BC005318000853180008531800085318000851
:1017CC005318000853180008531800085318000841
:1017DC005318000853180008531800080118000883
:1017EC0015180008824A934213D02CE03B68DB6842
:1017FC003B6229E03B68DB6804333B6224E03B68D6
:10180C00DB6808333B621FE03B68DB680C333B62F0
:10181C001AE03B689B68002B02D104233B6213E067
:10182C003B689B68012B05D108233B627B68FA69F6
:10183C001A6109E008233B627B68FA695A6103E08C
:10184C0000233B6200E000BFBB69FF2B01D87B6823
:10185C0001E07B6804337B61BB69FF2B02D87B6A98
:10186C009B0002E07B6A083B9B003B617B691A682A
:10187C000F213B6901FA03F3DB431A40396A3B69D8
:10188C0001FA03F31A437B691A603B685B6803F047
:10189C008053002B00F09080564B9B69554A43F0C7
:1018AC0001039361534B9B6903F00103BB60BB685D
:1018BC00514A7B6A9B08023352F82330FB607B6AE7
:1018CC0003F003039B000F2202FA03F3DB43FA68D5
:1018DC001340FB607B68494A93420DD07B68484AB1
:1018EC00934207D07B68474A934201D1022304E01C
:1018FC00032302E0012300E000237A6A02F00302D2
:10190C0092009340FA681343FB603B497B6A9B0847
:10191C000233FA6841F823203B685B6803F4803398
:10192C00002B06D0384B1A683749BB6913430B6040
:10193C0006E0354B1A68BB69DB43334913400B6037
:10194C003B685B6803F40033002B06D02E4B5A68BF
:10195C002D49BB6913434B6006E02B4B5A68BB699E
:10196C00DB43294913404B603B685B6803F48013ED
:10197C00002B06D0244B9A682349BB6913438B6018
:10198C0006E0214B9A68BB69DB431F4913408B600F
:10199C003B685B6803F40013002B06D01A4BDA6823
:1019AC001949BB691343CB6006E0174BDA68BB6976
:1019BC00DB4315491340CB607B6A01337B623B6888
:1019CC001A687B6A22FA03F3002B7FF4AFAE00BFD8
:1019DC0000BF2C37BD4680BC704700BF00003210E2
:1019EC000000311000002210000021100000121025
:1019FC0000001110001002400000014000080140DE
:101A0C00000C0140001001400004014080B485B07E
:101A1C0000AF78600B467B807B689A687B881340AC
:101A2C00002B02D00123FB7301E00023FB73FB7B33
:101A3C0018461437BD4680BC704780B483B000AFE5
:101A4C0078600B467B8013467B707B78002B03D031
:101A5C007A887B681A6103E07B881A047B681A61B8
:101A6C0000BF0C37BD4680BC704780B485B000AF5A
:101A7C0078600B467B807B68DB68FB607A88FB6850
:101A8C0013401A04FB68D9437B880B401A437B68CC
:101A9C001A6100BF1437BD4680BC704780B586B054
:101AAC0000AF78607B68002B01D101236CE27B686E
:101ABC001B6803F00103002B00F08780924B5B68DE
:101ACC0003F00C03042B0CD08F4B5B6803F00C035E
:101ADC00082B12D18C4B5B6803F48033B3F5803F39
:101AEC000BD1894B1B6803F40033002B6CD07B6843
:101AFC005B68002B68D1012346E27B685B68B3F519
:101B0C00803F06D1804B1B687F4A43F480331360BF
:101B1C002EE07B685B68002B0CD17B4B1B687A4AF0
:101B2C0023F480331360784B1B68774A23F48023AB
:101B3C0013601DE07B685B68B3F5A02F0CD1724B72
:101B4C001B68714A43F4802313606F4B1B686E4A09
:101B5C0043F4803313600BE06B4B1B686A4A23F42D
:101B6C0080331360684B1B68674A23F4802313602F
:101B7C007B685B68002B13D0FFF7B6FC386108E07C
:101B8C00FFF7B2FC02463B69D31A642B01D903233D
:101B9C00FAE15D4B1B6803F40033002BF0D014E02A
:101BAC00FFF7A2FC386108E0FFF79EFC02463B6998
:101BBC00D31A642B01D90323E6E1534B1B6803F4BE
:101BCC000033002BF0D100E000BF7B681B6803F0F2
:101BDC000203002B63D04C4B5B6803F00C03002B0F
:101BEC000BD0494B5B6803F00C03082B1CD1464B04
:101BFC005B6803F48033002B16D1434B1B6803F056
:101C0C000203002B05D07B681B69012B01D001233B
:101C1C00BAE13D4B1B6823F0F8027B685B69DB0083
:101C2C00394913430B603AE07B681B69002B20D0C9
:101C3C00364B01221A60FFF757FC386108E0FFF7BA
:101C4C0053FC02463B69D31A022B01D903239BE1B7
:101C5C002D4B1B6803F00203002BF0D02A4B1B68A2
:101C6C0023F0F8027B685B69DB00274913430B60A8
:101C7C0015E0264B00221A60FFF736FC386108E0AD
:101C8C00FFF732FC02463B69D31A022B01D903231E
:101C9C007AE11D4B1B6803F00203002BF0D17B682B
:101CAC001B6803F00803002B3AD07B689B69002B60
:101CBC0019D0174B01221A60FFF716FC386108E0A7
:101CCC00FFF712FC02463B69D31A022B01D90323FE
:101CDC005AE10D4B5B6A03F00203002BF0D001209C
:101CEC0000F0A6FA1CE00A4B00221A60FFF7FCFB7E
:101CFC0038610FE0FFF7F8FB02463B69D31A022B61
:101D0C0008D9032340E100BF00100240000042420A
:101D1C00800442429E4B5B6A03F00203002BE9D124
:101D2C007B681B6803F00403002B00F0A6800023E3
:101D3C00FB75974BDB6903F08053002B0DD1944B53
:101D4C00DB69934A43F08053D361914BDB6903F019
:101D5C008053BB60BB680123FB758E4B1B6803F47F
:101D6C008073002B18D18B4B1B688A4A43F4807309
:101D7C001360FFF7B9FB386108E0FFF7B5FB0246CB
:101D8C003B69D31A642B01D90323FDE0814B1B68FB
:101D9C0003F48073002BF0D07B68DB68012B06D139
:101DAC007B4B1B6A7A4A43F0010313622DE07B687C
:101DBC00DB68002B0CD1764B1B6A754A23F00103B0
:101DCC001362734B1B6A724A23F0040313621CE008
:101DDC007B68DB68052B0CD16D4B1B6A6C4A43F09E
:101DEC00040313626A4B1B6A694A43F001031362D2
:101DFC000BE0674B1B6A664A23F001031362644BCA
:101E0C001B6A634A23F0040313627B68DB68002BB4
:101E1C0015D0FFF769FB38610AE0FFF765FB024656
:101E2C003B69D31A41F28832934201D90323ABE0C8
:101E3C00574B1B6A03F00203002BEED014E0FFF7A4
:101E4C0053FB38610AE0FFF74FFB02463B69D31A9C
:101E5C0041F28832934201D9032395E04C4B1B6A23
:101E6C0003F00203002BEED1FB7D012B05D1484B77
:101E7C00DB69474A23F08053D3617B68DB69002B15
:101E8C0000F08180424B5B6803F00C03082B61D09F
:101E9C007B68DB69022B46D13F4B00221A60FFF7AF
:101EAC0023FB386108E0FFF71FFB02463B69D31A9E
:101EBC00022B01D9032367E0354B1B6803F0007339
:101ECC00002BF0D17B681B6AB3F5803F08D1304BF7
:101EDC005B6823F400327B689B682D4913434B608D
:101EEC002B4B5B6823F474127B68196A7B685B6A02
:101EFC000B43274913434B60274B01221A60FFF712
:101F0C00F3FA386108E0FFF7EFFA02463B69D31A9F
:101F1C00022B01D9032337E01D4B1B6803F0007320
:101F2C00002BF0D02FE01C4B00221A60FFF7DCFADC
:101F3C00386108E0FFF7D8FA02463B69D31A022B46
:101F4C0001D9032320E0124B1B6803F00073002B14
:101F5C00F0D118E07B68DB69012B01D1012313E080
:101F6C000B4B5B68FB60FB6803F480327B681B6A7D
:101F7C009A4206D1FB6803F470127B685B6A9A4242
:101F8C0001D0012300E0002318461837BD4680BD60
:101F9C0000100240007000406000424280B584B0E6
:101FAC0000AF786039607B68002B01D10123D0E051
:101FBC006A4B1B6803F007033A689A4210D9674BC7
:101FCC001B6823F0070265493B6813430B60634BA6
:101FDC001B6803F007033A689A4201D00123B8E06A
:101FEC007B681B6803F00203002B20D07B681B6806
:101FFC0003F00403002B05D0594B5B68584A43F49B
:10200C00E06353607B681B6803F00803002B05D06A
:10201C00534B5B68524A43F460535360504B5B68BC
:10202C0023F0F0027B689B684D4913434B607B683F
:10203C001B6803F00103002B40D07B685B68012B0D
:10204C0007D1474B1B6803F40033002B15D1012338
:10205C007FE07B685B68022B07D1414B1B6803F068
:10206C000073002B09D1012373E03D4B1B6803F077
:10207C000203002B01D101236BE0394B5B6823F089
:10208C0003027B685B68364913434B60FFF72CFAFD
:10209C00F8600AE0FFF728FA0246FB68D31A41F20F
:1020AC008832934201D9032353E02D4B5B6803F034
:1020BC000C027B685B689B009A42EBD1274B1B6838
:1020CC0003F007033A689A4210D2244B1B6823F0A2
:1020DC00070222493B6813430B60204B1B6803F03B
:1020EC0007033A689A4201D0012332E07B681B68EF
:1020FC0003F00403002B08D0194B5B6823F4E06257
:10210C007B68DB68164913434B607B681B6803F0E4
:10211C000803002B09D0124B5B6823F460527B68D8
:10212C001B69DB000E4913434B6000F021F802469B
:10213C000B4B5B681B0903F00F030A49CB5C22FABB
:10214C0003F3094A1360094B1B681846FFF78AF919
:10215C00002318461037BD4680BD00BF002002404A
:10216C0000100240C02A000830000020340000207B
:10217C0090B48AB000AF2A4B3C1D0FCB84E80F0003
:10218C0040F201233B800023FB610023BB61002351
:10219C007B6200237B6100233B62224B5B68FB610B
:1021AC00FB6903F00C03042B02D0082B03D02DE0A9
:1021BC001D4B3B622DE0FB699B0C03F00F0307F1F9
:1021CC002802134413F8243C7B61FB6903F480332D
:1021DC00002B13D0134B5B685B0C03F0010307F16E
:1021EC002802134413F8283CBB617B690E4A02FB9E
:1021FC0003F2BB69B2FBF3F37B6204E07B690B4A2D
:10220C0002FB03F37B627B6A3B6202E0064B3B62A0
:10221C0000BF3B6A18462837BD4690BC704700BFCC
:10222C00B02A00080010024000127A0000093D009C
:10223C0080B485B000AF78600A4B1B680A4AA2FBD9
:10224C0003235B0A7A6802FB03F3FB6000BFFB68A5
:10225C005A1EFA60002BF9D100BF00BF1437BD46DF
:10226C0080BC704730000020D34D621080B582B026
:10227C0000AF78607B68002B01D1012341E07B68C3
:10228C0093F83D30DBB2002B06D17B68002283F83B
:10229C003C207868FFF74EF87B68022283F83D20DB
:1022AC007B681A687B6804331946104600F06AFA9A
:1022BC007B68012283F846207B68012283F83E204C
:1022CC007B68012283F83F207B68012283F8402041
:1022DC007B68012283F841207B68012283F842202D
:1022EC007B68012283F843207B68012283F8442019
:1022FC007B68012283F845207B68012283F83D200E
:10230C00002318460837BD4680BD000080B485B058
:10231C0000AF78607B6893F83D30DBB2012B01D0C5
:10232C00012335E07B68022283F83D207B681B6823
:10233C00DA687B681B6842F00102DA607B681B6814
:10234C00164A934209D07B681B68B3F1804F04D0C6
:10235C007B681B68124A934211D17B681B689B688F
:10236C0003F00703FB60FB68062B10D07B681B682F
:10237C001A687B681B6842F001021A6007E07B68F0
:10238C001B681A687B681B6842F001021A60002304
:10239C0018461437BD4680BC704700BF002C014066
:1023AC000004004080B582B000AF78607B681B6889
:1023BC001B6903F00203022B22D17B681B68DB68CC
:1023CC0003F00203022B1BD17B681B686FF0020227
:1023DC001A617B6801221A777B681B689B6903F082
:1023EC000303002B03D0786800F0B1F905E078689E
:1023FC0000F0A4F9786800F0B3F97B6800221A7732
:10240C007B681B681B6903F00403042B22D17B68D7
:10241C001B68DB6803F00403042B1BD17B681B686F
:10242C006FF004021A617B6802221A777B681B68C2
:10243C009B6903F44073002B03D0786800F087F994
:10244C0005E0786800F07AF9786800F089F97B6823
:10245C0000221A777B681B681B6903F00803082BA2
:10246C0022D17B681B68DB6803F00803082B1BD1A7
:10247C007B681B686FF008021A617B6804221A776C
:10248C007B681B68DB6903F00303002B03D07868BF
:10249C0000F05DF905E0786800F050F9786800F01C
:1024AC005FF97B6800221A777B681B681B6903F055
:1024BC001003102B22D17B681B68DB6803F0100320
:1024CC00102B1BD17B681B686FF010021A617B68A4
:1024DC0008221A777B681B68DB6903F44073002BB6
:1024EC0003D0786800F033F905E0786800F026F93D
:1024FC00786800F035F97B6800221A777B681B68D6
:10250C001B6903F00103012B0ED17B681B68DB6890
:10251C0003F00103012B07D17B681B686FF00102EC
:10252C001A617868FEF738FE7B681B681B6903F03C
:10253C008003802B0ED17B681B68DB6803F0800363
:10254C00802B07D17B681B686FF080021A6178685A
:10255C0000F067FA7B681B681B6903F04003402B93
:10256C000ED17B681B68DB6803F04003402B07D15E
:10257C007B681B686FF040021A61786800F0F9F80C
:10258C007B681B681B6903F02003202B0ED17B6832
:10259C001B68DB6803F02003202B07D17B681B68CA
:1025AC006FF020021A61786800F032FA00BF083729
:1025BC00BD4680BD80B584B000AF786039607B6863
:1025CC0093F83C30012B01D10223B3E07B6801224C
:1025DC0083F83C207B68022283F83D207B681B68D3
:1025EC009B68FB60FB6823F07703FB60FB6823F4BC
:1025FC007F43FB607B681B68FA689A603B681B68CA
:10260C00B3F5005F3ED0B3F5005F00F28780B3F501
:10261C00805F00F08580B3F5805F7FD8702B1AD077
:10262C00702B7BD8602B50D0602B77D8502B3CD0A4
:10263C00502B73D8402B58D0402B6FD8302B64D0F4
:10264C00302B6BD8202B60D0202B67D8002B5CD084
:10265C00102B5AD062E07B6818683B6899683B681D
:10266C005A683B68DB6800F05CF97B681B689B6808
:10267C00FB60FB6843F07703FB607B681B68FA68C0
:10268C009A604EE07B6818683B6899683B685A68AA
:10269C003B68DB6800F045F97B681B689A687B68CF
:1026AC001B6842F480429A603BE07B6818683B6888
:1026BC0059683B68DB681A4600F0BCF87B681B68FD
:1026CC005021184600F013F92BE07B6818683B6822
:1026DC0059683B68DB681A4600F0DAF87B681B68BF
:1026EC006021184600F003F91BE07B6818683B6812
:1026FC0059683B68DB681A4600F09CF87B681B68DD
:10270C004021184600F0F3F80BE07B681A683B6830
:10271C001B681946104600F0EAF802E000BF00E022
:10272C0000BF7B68012283F83D207B68002283F880
:10273C003C20002318461037BD4680BD80B483B0C2
:10274C0000AF786000BF0C37BD4680BC704780B4CA
:10275C0083B000AF786000BF0C37BD4680BC7047BB
:10276C0080B483B000AF786000BF0C37BD4680BC2E
:10277C00704780B483B000AF786000BF0C37BD46A3
:10278C0080BC704780B485B000AF786039607B68DE
:10279C001B68FB607B68254A934207D07B68B3F1CA
:1027AC00804F03D07B68224A934208D1FB6823F008
:1027BC007003FB603B685B68FA681343FB607B68E3
:1027CC001A4A934207D07B68B3F1804F03D07B68E1
:1027DC00174A934208D1FB6823F44073FB603B68B3
:1027EC00DB68FA681343FB60FB6823F080023B68EC
:1027FC005B691343FB607B68FA681A603B689A68F4
:10280C007B68DA623B681A687B689A627B68074A65
:10281C00934203D13B681A697B681A637B68012277
:10282C005A6100BF1437BD4680BC7047002C014074
:10283C000004004080B487B000AFF860B9607A60E3
:10284C00FB681B6A7B61FB681B6A23F00102FB6857
:10285C001A62FB689B693B613B6923F0F0033B61A7
:10286C007B681B013A6913433B617B6923F00A03C4
:10287C007B617A69BB6813437B61FB683A699A6137
:10288C00FB687A691A6200BF1C37BD4680BC704772
:10289C0080B487B000AFF860B9607A60FB681B6ADF
:1028AC0023F01002FB681A62FB689B697B61FB6872
:1028BC001B6A3B617B6923F470437B617B681B0360
:1028CC007A6913437B613B6923F0A0033B61BB68CE
:1028DC001B013A6913433B61FB687A699A61FB6897
:1028EC003A691A6200BF1C37BD4680BC704780B481
:1028FC0085B000AF786039607B689B68FB60FB68D3
:10290C0023F07003FB603A68FB68134343F0070342
:10291C00FB607B68FA689A6000BF1437BD4680BCC8
:10292C00704780B487B000AFF860B9607A603B60E4
:10293C00FB689B687B617B6923F47F437B613B680D
:10294C001A027B681A43BB6813437A6913437B6191
:10295C00FB687A699A6000BF1C37BD4680BC704723
:10296C0080B485B000AF786039607B6893F83C30F8
:10297C00012B01D1022341E07B68012283F83C202A
:10298C007B68022283F83D207B681B685B68FB60D8
:10299C007B681B689B68BB60FB6823F07003FB6063
:1029AC003B681B68FA681343FB607B681B68FA681A
:1029BC005A607B681B68144A934209D07B681B6879
:1029CC00B3F1804F04D07B681B68104A93420CD142
:1029DC00BB6823F08003BB603B685B68BA68134339
:1029EC00BB607B681B68BA689A607B68012283F8BD
:1029FC003D207B68002283F83C20002318461437C6
:102A0C00BD4680BC704700BF002C01400004004054
:102A1C0080B483B000AF786000BF0C37BD4680BC7B
:102A2C00704780B483B000AF786000BF0C37BD46F0
:102A3C0080BC704770B500260C4D0D4C641BA41067
:102A4C00A64209D100F022F800260A4D0A4C641B5C
:102A5C00A410A64205D170BD55F8043B9847013629
:102A6C00EEE755F8043B98470136F2E7D02A000808
:102A7C00D02A0008D02A0008D42A000803460244B1
:102A8C00934200D1704703F8011BF9E7F8B500BF7A
:102A9C00F8BC08BC9E467047F8B500BFF8BC08BC33
:042AAC009E4670478B
:102AB00002030405060708090A0B0C0D0E0F10107F
:102AC00000000000000000000102030406070809DE
:042AD00031010008C8
:042AD4000D010008E8
:102AD80064000000640000006400000003000000BF
:102AE80008000000000000000000000000000000D6
:102AF8000A000000070000000300000001000000B9
:0C2B08000024F400100000000100000098
:04000005080013F9E3
:00000001FF
